{
  "_format": "hh-sol-artifact-1",
  "contractName": "Twitter",
  "sourceName": "contracts/twitter.sol",
  "abi": [
    {
      "inputs": [],
      "stateMutability": "nonpayable",
      "type": "constructor"
    },
    {
      "anonymous": false,
      "inputs": [
        {
          "indexed": false,
          "internalType": "uint256",
          "name": "id",
          "type": "uint256"
        },
        {
          "indexed": false,
          "internalType": "bool",
          "name": "isDeleted",
          "type": "bool"
        }
      ],
      "name": "TweetDeleted",
      "type": "event"
    },
    {
      "anonymous": false,
      "inputs": [
        {
          "indexed": false,
          "internalType": "address",
          "name": "tweeter",
          "type": "address"
        },
        {
          "indexed": false,
          "internalType": "uint256",
          "name": "id",
          "type": "uint256"
        },
        {
          "indexed": false,
          "internalType": "string",
          "name": "tweetText",
          "type": "string"
        },
        {
          "indexed": false,
          "internalType": "string",
          "name": "tweetImg",
          "type": "string"
        },
        {
          "indexed": false,
          "internalType": "bool",
          "name": "isDeleted",
          "type": "bool"
        },
        {
          "indexed": false,
          "internalType": "uint256",
          "name": "timestamp",
          "type": "uint256"
        }
      ],
      "name": "tweetCreated",
      "type": "event"
    },
    {
      "inputs": [
        {
          "internalType": "string",
          "name": "tweetText",
          "type": "string"
        },
        {
          "internalType": "string",
          "name": "tweetImg",
          "type": "string"
        }
      ],
      "name": "addTweet",
      "outputs": [],
      "stateMutability": "payable",
      "type": "function"
    },
    {
      "inputs": [
        {
          "internalType": "uint256",
          "name": "tweetId",
          "type": "uint256"
        },
        {
          "internalType": "bool",
          "name": "isDeleted",
          "type": "bool"
        }
      ],
      "name": "deleteTweet",
      "outputs": [],
      "stateMutability": "nonpayable",
      "type": "function"
    },
    {
      "inputs": [],
      "name": "getAllTweets",
      "outputs": [
        {
          "components": [
            {
              "internalType": "address",
              "name": "tweeter",
              "type": "address"
            },
            {
              "internalType": "uint256",
              "name": "id",
              "type": "uint256"
            },
            {
              "internalType": "string",
              "name": "tweetText",
              "type": "string"
            },
            {
              "internalType": "string",
              "name": "tweetImg",
              "type": "string"
            },
            {
              "internalType": "bool",
              "name": "isDeleted",
              "type": "bool"
            },
            {
              "internalType": "uint256",
              "name": "timestamp",
              "type": "uint256"
            }
          ],
          "internalType": "struct Twitter.tweet[]",
          "name": "",
          "type": "tuple[]"
        }
      ],
      "stateMutability": "view",
      "type": "function"
    },
    {
      "inputs": [],
      "name": "getMyTweets",
      "outputs": [
        {
          "components": [
            {
              "internalType": "address",
              "name": "tweeter",
              "type": "address"
            },
            {
              "internalType": "uint256",
              "name": "id",
              "type": "uint256"
            },
            {
              "internalType": "string",
              "name": "tweetText",
              "type": "string"
            },
            {
              "internalType": "string",
              "name": "tweetImg",
              "type": "string"
            },
            {
              "internalType": "bool",
              "name": "isDeleted",
              "type": "bool"
            },
            {
              "internalType": "uint256",
              "name": "timestamp",
              "type": "uint256"
            }
          ],
          "internalType": "struct Twitter.tweet[]",
          "name": "",
          "type": "tuple[]"
        }
      ],
      "stateMutability": "view",
      "type": "function"
    },
    {
      "inputs": [
        {
          "internalType": "uint256",
          "name": "id",
          "type": "uint256"
        }
      ],
      "name": "getTweet",
      "outputs": [
        {
          "internalType": "string",
          "name": "",
          "type": "string"
        },
        {
          "internalType": "string",
          "name": "",
          "type": "string"
        },
        {
          "internalType": "address",
          "name": "",
          "type": "address"
        }
      ],
      "stateMutability": "view",
      "type": "function"
    },
    {
      "inputs": [
        {
          "internalType": "address",
          "name": "userAddress",
          "type": "address"
        }
      ],
      "name": "getUser",
      "outputs": [
        {
          "components": [
            {
              "internalType": "string",
              "name": "name",
              "type": "string"
            },
            {
              "internalType": "string",
              "name": "bio",
              "type": "string"
            },
            {
              "internalType": "string",
              "name": "profileImg",
              "type": "string"
            },
            {
              "internalType": "string",
              "name": "profileBanner",
              "type": "string"
            }
          ],
          "internalType": "struct Twitter.user",
          "name": "",
          "type": "tuple"
        }
      ],
      "stateMutability": "view",
      "type": "function"
    },
    {
      "inputs": [],
      "name": "owner",
      "outputs": [
        {
          "internalType": "address",
          "name": "",
          "type": "address"
        }
      ],
      "stateMutability": "view",
      "type": "function"
    },
    {
      "inputs": [
        {
          "internalType": "string",
          "name": "newName",
          "type": "string"
        },
        {
          "internalType": "string",
          "name": "newBio",
          "type": "string"
        },
        {
          "internalType": "string",
          "name": "newProfileImg",
          "type": "string"
        },
        {
          "internalType": "string",
          "name": "newProfileBanner",
          "type": "string"
        }
      ],
      "name": "updateUser",
      "outputs": [],
      "stateMutability": "nonpayable",
      "type": "function"
    }
  ],
  "bytecode": "0x608060405234801561001057600080fd5b506000600181905550336000806101000a81548173ffffffffffffffffffffffffffffffffffffffff021916908373ffffffffffffffffffffffffffffffffffffffff160217905550611fb7806100686000396000f3fe60806040526004361061007b5760003560e01c8063aefedbc21161004e578063aefedbc21461012f578063b5c24a011461015a578063c3ad5ecb14610183578063f0312a37146101c25761007b565b806353256135146100805780636f77926b146100ab5780637e75b408146100e85780638da5cb5b14610104575b600080fd5b34801561008c57600080fd5b506100956101eb565b6040516100a29190611446565b60405180910390f35b3480156100b757600080fd5b506100d260048036038101906100cd91906114a8565b610545565b6040516100df919061154d565b60405180910390f35b61010260048036038101906100fd91906116a4565b6107e6565b005b34801561011057600080fd5b506101196109a8565b604051610126919061172b565b60405180910390f35b34801561013b57600080fd5b506101446109cc565b6040516101519190611446565b60405180910390f35b34801561016657600080fd5b50610181600480360381019061017c9190611746565b610d94565b005b34801561018f57600080fd5b506101aa60048036038101906101a59190611849565b610e26565b6040516101b9939291906118c0565b60405180910390f35b3480156101ce57600080fd5b506101e960048036038101906101e49190611931565b611031565b005b6060600060015467ffffffffffffffff81111561020b5761020a611579565b5b60405190808252806020026020018201604052801561024457816020015b610231611179565b8152602001906001900390816102295790505b5090506000805b60015481101561048b57600015156002600083815260200190815260200160002060040160009054906101000a900460ff1615150361047857600260008281526020019081526020016000206040518060c00160405290816000820160009054906101000a900473ffffffffffffffffffffffffffffffffffffffff1673ffffffffffffffffffffffffffffffffffffffff1673ffffffffffffffffffffffffffffffffffffffff16815260200160018201548152602001600282018054610312906119a0565b80601f016020809104026020016040519081016040528092919081815260200182805461033e906119a0565b801561038b5780601f106103605761010080835404028352916020019161038b565b820191906000526020600020905b81548152906001019060200180831161036e57829003601f168201915b505050505081526020016003820180546103a4906119a0565b80601f01602080910402602001604051908101604052809291908181526020018280546103d0906119a0565b801561041d5780601f106103f25761010080835404028352916020019161041d565b820191906000526020600020905b81548152906001019060200180831161040057829003601f168201915b505050505081526020016004820160009054906101000a900460ff1615151515815260200160058201548152505083838151811061045e5761045d6119d1565b5b6020026020010181905250818061047490611a2f565b9250505b808061048390611a2f565b91505061024b565b5060008167ffffffffffffffff8111156104a8576104a7611579565b5b6040519080825280602002602001820160405280156104e157816020015b6104ce611179565b8152602001906001900390816104c65790505b50905060005b8281101561053b57838181518110610502576105016119d1565b5b602002602001015182828151811061051d5761051c6119d1565b5b6020026020010181905250808061053390611a2f565b9150506104e7565b5080935050505090565b61054d6111c7565b600360008373ffffffffffffffffffffffffffffffffffffffff1673ffffffffffffffffffffffffffffffffffffffff1681526020019081526020016000206040518060800160405290816000820180546105a7906119a0565b80601f01602080910402602001604051908101604052809291908181526020018280546105d3906119a0565b80156106205780601f106105f557610100808354040283529160200191610620565b820191906000526020600020905b81548152906001019060200180831161060357829003601f168201915b50505050508152602001600182018054610639906119a0565b80601f0160208091040260200160405190810160405280929190818152602001828054610665906119a0565b80156106b25780601f10610687576101008083540402835291602001916106b2565b820191906000526020600020905b81548152906001019060200180831161069557829003601f168201915b505050505081526020016002820180546106cb906119a0565b80601f01602080910402602001604051908101604052809291908181526020018280546106f7906119a0565b80156107445780601f1061071957610100808354040283529160200191610744565b820191906000526020600020905b81548152906001019060200180831161072757829003601f168201915b5050505050815260200160038201805461075d906119a0565b80601f0160208091040260200160405190810160405280929190818152602001828054610789906119a0565b80156107d65780601f106107ab576101008083540402835291602001916107d6565b820191906000526020600020905b8154815290600101906020018083116107b957829003601f168201915b5050505050815250509050919050565b662386f26fc10000341461082f576040517f08c379a000000000000000000000000000000000000000000000000000000000815260040161082690611ac3565b60405180910390fd5b60006002600060015481526020019081526020016000209050828160020190816108599190611c8f565b508181600301908161086b9190611c8f565b50338160000160006101000a81548173ffffffffffffffffffffffffffffffffffffffff021916908373ffffffffffffffffffffffffffffffffffffffff160217905550600154816001018190555060008160040160006101000a81548160ff0219169083151502179055504281600501819055507f38c5779ac46571418294ee2465c37dedbc6002dc9d04a4033cf23156da62fcd333600154858560004260405161091c96959493929190611d7f565b60405180910390a16001600081548092919061093790611a2f565b919050555060008054906101000a900473ffffffffffffffffffffffffffffffffffffffff1673ffffffffffffffffffffffffffffffffffffffff166108fc349081150290604051600060405180830381858888f193505050501580156109a2573d6000803e3d6000fd5b50505050565b60008054906101000a900473ffffffffffffffffffffffffffffffffffffffff1681565b6060600060015467ffffffffffffffff8111156109ec576109eb611579565b5b604051908082528060200260200182016040528015610a2557816020015b610a12611179565b815260200190600190039081610a0a5790505b5090506000805b600154811015610cda573373ffffffffffffffffffffffffffffffffffffffff166002600083815260200190815260200160002060000160009054906101000a900473ffffffffffffffffffffffffffffffffffffffff1673ffffffffffffffffffffffffffffffffffffffff16148015610ace5750600015156002600083815260200190815260200160002060040160009054906101000a900460ff161515145b15610cc757600260008281526020019081526020016000206040518060c00160405290816000820160009054906101000a900473ffffffffffffffffffffffffffffffffffffffff1673ffffffffffffffffffffffffffffffffffffffff1673ffffffffffffffffffffffffffffffffffffffff16815260200160018201548152602001600282018054610b61906119a0565b80601f0160208091040260200160405190810160405280929190818152602001828054610b8d906119a0565b8015610bda5780601f10610baf57610100808354040283529160200191610bda565b820191906000526020600020905b815481529060010190602001808311610bbd57829003601f168201915b50505050508152602001600382018054610bf3906119a0565b80601f0160208091040260200160405190810160405280929190818152602001828054610c1f906119a0565b8015610c6c5780601f10610c4157610100808354040283529160200191610c6c565b820191906000526020600020905b815481529060010190602001808311610c4f57829003601f168201915b505050505081526020016004820160009054906101000a900460ff16151515158152602001600582015481525050838381518110610cad57610cac6119d1565b5b60200260200101819052508180610cc390611a2f565b9250505b8080610cd290611a2f565b915050610a2c565b5060008167ffffffffffffffff811115610cf757610cf6611579565b5b604051908082528060200260200182016040528015610d3057816020015b610d1d611179565b815260200190600190039081610d155790505b50905060005b82811015610d8a57838181518110610d5157610d506119d1565b5b6020026020010151828281518110610d6c57610d6b6119d1565b5b60200260200101819052508080610d8290611a2f565b915050610d36565b5080935050505090565b6000600360003373ffffffffffffffffffffffffffffffffffffffff1673ffffffffffffffffffffffffffffffffffffffff168152602001908152602001600020905084816000019081610de89190611c8f565b5083816001019081610dfa9190611c8f565b5082816002019081610e0c9190611c8f565b5081816003019081610e1e9190611c8f565b505050505050565b60608060006001548410610e6f576040517f08c379a0000000000000000000000000000000000000000000000000000000008152600401610e6690611e3a565b60405180910390fd5b6000600260008681526020019081526020016000209050600015158160040160009054906101000a900460ff16151514610ede576040517f08c379a0000000000000000000000000000000000000000000000000000000008152600401610ed590611ea6565b60405180910390fd5b80600201816003018260000160009054906101000a900473ffffffffffffffffffffffffffffffffffffffff16828054610f17906119a0565b80601f0160208091040260200160405190810160405280929190818152602001828054610f43906119a0565b8015610f905780601f10610f6557610100808354040283529160200191610f90565b820191906000526020600020905b815481529060010190602001808311610f7357829003601f168201915b50505050509250818054610fa3906119a0565b80601f0160208091040260200160405190810160405280929190818152602001828054610fcf906119a0565b801561101c5780601f10610ff15761010080835404028352916020019161101c565b820191906000526020600020905b815481529060010190602001808311610fff57829003601f168201915b50505050509150935093509350509193909250565b3373ffffffffffffffffffffffffffffffffffffffff166002600084815260200190815260200160002060000160009054906101000a900473ffffffffffffffffffffffffffffffffffffffff1673ffffffffffffffffffffffffffffffffffffffff16146110d5576040517f08c379a00000000000000000000000000000000000000000000000000000000081526004016110cc90611f38565b60405180910390fd5b806002600084815260200190815260200160002060040160006101000a81548160ff0219169083151502179055507f90c03fdb3ba756f41c01353982e90798d484dbdcc5571fb39be23b1fee59490a60026000848152602001908152602001600020600101546002600085815260200190815260200160002060040160009054906101000a900460ff1660405161116d929190611f58565b60405180910390a15050565b6040518060c00160405280600073ffffffffffffffffffffffffffffffffffffffff168152602001600081526020016060815260200160608152602001600015158152602001600081525090565b6040518060800160405280606081526020016060815260200160608152602001606081525090565b600081519050919050565b600082825260208201905092915050565b6000819050602082019050919050565b600073ffffffffffffffffffffffffffffffffffffffff82169050919050565b60006112468261121b565b9050919050565b6112568161123b565b82525050565b6000819050919050565b61126f8161125c565b82525050565b600081519050919050565b600082825260208201905092915050565b60005b838110156112af578082015181840152602081019050611294565b60008484015250505050565b6000601f19601f8301169050919050565b60006112d782611275565b6112e18185611280565b93506112f1818560208601611291565b6112fa816112bb565b840191505092915050565b60008115159050919050565b61131a81611305565b82525050565b600060c083016000830151611338600086018261124d565b50602083015161134b6020860182611266565b506040830151848203604086015261136382826112cc565b9150506060830151848203606086015261137d82826112cc565b91505060808301516113926080860182611311565b5060a08301516113a560a0860182611266565b508091505092915050565b60006113bc8383611320565b905092915050565b6000602082019050919050565b60006113dc826111ef565b6113e681856111fa565b9350836020820285016113f88561120b565b8060005b85811015611434578484038952815161141585826113b0565b9450611420836113c4565b925060208a019950506001810190506113fc565b50829750879550505050505092915050565b6000602082019050818103600083015261146081846113d1565b905092915050565b6000604051905090565b600080fd5b600080fd5b6114858161123b565b811461149057600080fd5b50565b6000813590506114a28161147c565b92915050565b6000602082840312156114be576114bd611472565b5b60006114cc84828501611493565b91505092915050565b600060808301600083015184820360008601526114f282826112cc565b9150506020830151848203602086015261150c82826112cc565b9150506040830151848203604086015261152682826112cc565b9150506060830151848203606086015261154082826112cc565b9150508091505092915050565b6000602082019050818103600083015261156781846114d5565b905092915050565b600080fd5b600080fd5b7f4e487b7100000000000000000000000000000000000000000000000000000000600052604160045260246000fd5b6115b1826112bb565b810181811067ffffffffffffffff821117156115d0576115cf611579565b5b80604052505050565b60006115e3611468565b90506115ef82826115a8565b919050565b600067ffffffffffffffff82111561160f5761160e611579565b5b611618826112bb565b9050602081019050919050565b82818337600083830152505050565b6000611647611642846115f4565b6115d9565b90508281526020810184848401111561166357611662611574565b5b61166e848285611625565b509392505050565b600082601f83011261168b5761168a61156f565b5b813561169b848260208601611634565b91505092915050565b600080604083850312156116bb576116ba611472565b5b600083013567ffffffffffffffff8111156116d9576116d8611477565b5b6116e585828601611676565b925050602083013567ffffffffffffffff81111561170657611705611477565b5b61171285828601611676565b9150509250929050565b6117258161123b565b82525050565b6000602082019050611740600083018461171c565b92915050565b600080600080608085870312156117605761175f611472565b5b600085013567ffffffffffffffff81111561177e5761177d611477565b5b61178a87828801611676565b945050602085013567ffffffffffffffff8111156117ab576117aa611477565b5b6117b787828801611676565b935050604085013567ffffffffffffffff8111156117d8576117d7611477565b5b6117e487828801611676565b925050606085013567ffffffffffffffff81111561180557611804611477565b5b61181187828801611676565b91505092959194509250565b6118268161125c565b811461183157600080fd5b50565b6000813590506118438161181d565b92915050565b60006020828403121561185f5761185e611472565b5b600061186d84828501611834565b91505092915050565b600082825260208201905092915050565b600061189282611275565b61189c8185611876565b93506118ac818560208601611291565b6118b5816112bb565b840191505092915050565b600060608201905081810360008301526118da8186611887565b905081810360208301526118ee8185611887565b90506118fd604083018461171c565b949350505050565b61190e81611305565b811461191957600080fd5b50565b60008135905061192b81611905565b92915050565b6000806040838503121561194857611947611472565b5b600061195685828601611834565b92505060206119678582860161191c565b9150509250929050565b7f4e487b7100000000000000000000000000000000000000000000000000000000600052602260045260246000fd5b600060028204905060018216806119b857607f821691505b6020821081036119cb576119ca611971565b5b50919050565b7f4e487b7100000000000000000000000000000000000000000000000000000000600052603260045260246000fd5b7f4e487b7100000000000000000000000000000000000000000000000000000000600052601160045260246000fd5b6000611a3a8261125c565b91507fffffffffffffffffffffffffffffffffffffffffffffffffffffffffffffffff8203611a6c57611a6b611a00565b5b600182019050919050565b7f506c65617365207375626d697420302e3031204d415449430000000000000000600082015250565b6000611aad601883611876565b9150611ab882611a77565b602082019050919050565b60006020820190508181036000830152611adc81611aa0565b9050919050565b60008190508160005260206000209050919050565b60006020601f8301049050919050565b600082821b905092915050565b600060088302611b457fffffffffffffffffffffffffffffffffffffffffffffffffffffffffffffffff82611b08565b611b4f8683611b08565b95508019841693508086168417925050509392505050565b6000819050919050565b6000611b8c611b87611b828461125c565b611b67565b61125c565b9050919050565b6000819050919050565b611ba683611b71565b611bba611bb282611b93565b848454611b15565b825550505050565b600090565b611bcf611bc2565b611bda818484611b9d565b505050565b5b81811015611bfe57611bf3600082611bc7565b600181019050611be0565b5050565b601f821115611c4357611c1481611ae3565b611c1d84611af8565b81016020851015611c2c578190505b611c40611c3885611af8565b830182611bdf565b50505b505050565b600082821c905092915050565b6000611c6660001984600802611c48565b1980831691505092915050565b6000611c7f8383611c55565b9150826002028217905092915050565b611c9882611275565b67ffffffffffffffff811115611cb157611cb0611579565b5b611cbb82546119a0565b611cc6828285611c02565b600060209050601f831160018114611cf95760008415611ce7578287015190505b611cf18582611c73565b865550611d59565b601f198416611d0786611ae3565b60005b82811015611d2f57848901518255600182019150602085019450602081019050611d0a565b86831015611d4c5784890151611d48601f891682611c55565b8355505b6001600288020188555050505b505050505050565b611d6a8161125c565b82525050565b611d7981611305565b82525050565b600060c082019050611d94600083018961171c565b611da16020830188611d61565b8181036040830152611db38187611887565b90508181036060830152611dc78186611887565b9050611dd66080830185611d70565b611de360a0830184611d61565b979650505050505050565b7f4e6f207375636820547765657400000000000000000000000000000000000000600082015250565b6000611e24600d83611876565b9150611e2f82611dee565b602082019050919050565b60006020820190508181036000830152611e5381611e17565b9050919050565b7f54776565742069732064656c6574656400000000000000000000000000000000600082015250565b6000611e90601083611876565b9150611e9b82611e5a565b602082019050919050565b60006020820190508181036000830152611ebf81611e83565b9050919050565b7f596f752063616e206f6e6c792064656c65746520796f7572206f776e2074776560008201527f6574000000000000000000000000000000000000000000000000000000000000602082015250565b6000611f22602283611876565b9150611f2d82611ec6565b604082019050919050565b60006020820190508181036000830152611f5181611f15565b9050919050565b6000604082019050611f6d6000830185611d61565b611f7a6020830184611d70565b939250505056fea26469706673582212204d60e3efa8ece242071ec28a84845de20498ca8ae334e4b975377c99af8e919264736f6c63430008120033",
  "linkReferences": {},
  "deployedLinkReferences": {}
}